{
  "_format": "hh-sol-artifact-1",
  "contractName": "PresaleToken",
  "sourceName": "contracts/PresaleToken.sol",
  "abi": [
    {
      "inputs": [
        {
          "internalType": "address",
          "name": "_token",
          "type": "address"
        },
        {
          "internalType": "address",
          "name": "_from",
          "type": "address"
        },
        {
          "internalType": "uint256",
          "name": "_conversionRate",
          "type": "uint256"
        }
      ],
      "stateMutability": "nonpayable",
      "type": "constructor"
    },
    {
      "anonymous": false,
      "inputs": [
        {
          "indexed": true,
          "internalType": "address",
          "name": "previousOwner",
          "type": "address"
        },
        {
          "indexed": true,
          "internalType": "address",
          "name": "newOwner",
          "type": "address"
        }
      ],
      "name": "OwnershipTransferred",
      "type": "event"
    },
    {
      "anonymous": false,
      "inputs": [
        {
          "indexed": true,
          "internalType": "address",
          "name": "to",
          "type": "address"
        },
        {
          "indexed": false,
          "internalType": "uint256",
          "name": "value",
          "type": "uint256"
        }
      ],
      "name": "Transfer",
      "type": "event"
    },
    {
      "anonymous": false,
      "inputs": [
        {
          "indexed": true,
          "internalType": "address",
          "name": "wallet",
          "type": "address"
        },
        {
          "indexed": false,
          "internalType": "uint256",
          "name": "amount",
          "type": "uint256"
        },
        {
          "indexed": false,
          "internalType": "uint256",
          "name": "date",
          "type": "uint256"
        }
      ],
      "name": "Withdraw",
      "type": "event"
    },
    {
      "inputs": [
        {
          "internalType": "uint256",
          "name": "_rate",
          "type": "uint256"
        }
      ],
      "name": "changeConversionRate",
      "outputs": [],
      "stateMutability": "nonpayable",
      "type": "function"
    },
    {
      "inputs": [
        {
          "internalType": "address",
          "name": "_from",
          "type": "address"
        }
      ],
      "name": "changeFromAddress",
      "outputs": [],
      "stateMutability": "nonpayable",
      "type": "function"
    },
    {
      "inputs": [],
      "name": "checkBalance",
      "outputs": [
        {
          "internalType": "uint256",
          "name": "",
          "type": "uint256"
        }
      ],
      "stateMutability": "view",
      "type": "function"
    },
    {
      "inputs": [],
      "name": "conversionRate",
      "outputs": [
        {
          "internalType": "uint256",
          "name": "",
          "type": "uint256"
        }
      ],
      "stateMutability": "view",
      "type": "function"
    },
    {
      "inputs": [],
      "name": "from",
      "outputs": [
        {
          "internalType": "address",
          "name": "",
          "type": "address"
        }
      ],
      "stateMutability": "view",
      "type": "function"
    },
    {
      "inputs": [],
      "name": "owner",
      "outputs": [
        {
          "internalType": "address",
          "name": "",
          "type": "address"
        }
      ],
      "stateMutability": "view",
      "type": "function"
    },
    {
      "inputs": [],
      "name": "renounceOwnership",
      "outputs": [],
      "stateMutability": "nonpayable",
      "type": "function"
    },
    {
      "inputs": [],
      "name": "token",
      "outputs": [
        {
          "internalType": "contract IERC20",
          "name": "",
          "type": "address"
        }
      ],
      "stateMutability": "view",
      "type": "function"
    },
    {
      "inputs": [
        {
          "internalType": "address",
          "name": "newOwner",
          "type": "address"
        }
      ],
      "name": "transferOwnership",
      "outputs": [],
      "stateMutability": "nonpayable",
      "type": "function"
    },
    {
      "inputs": [],
      "name": "transferTokens",
      "outputs": [],
      "stateMutability": "payable",
      "type": "function"
    },
    {
      "inputs": [],
      "name": "withDrawEth",
      "outputs": [],
      "stateMutability": "nonpayable",
      "type": "function"
    }
  ],
  "bytecode": "0x60806040523480156200001157600080fd5b506040516200119138038062001191833981810160405281019062000037919062000261565b620000576200004b620000f060201b60201c565b620000f860201b60201c565b6001808190555082600260006101000a81548173ffffffffffffffffffffffffffffffffffffffff021916908373ffffffffffffffffffffffffffffffffffffffff16021790555081600360006101000a81548173ffffffffffffffffffffffffffffffffffffffff021916908373ffffffffffffffffffffffffffffffffffffffff16021790555080600581905550505050620002bd565b600033905090565b60008060009054906101000a900473ffffffffffffffffffffffffffffffffffffffff169050816000806101000a81548173ffffffffffffffffffffffffffffffffffffffff021916908373ffffffffffffffffffffffffffffffffffffffff1602179055508173ffffffffffffffffffffffffffffffffffffffff168173ffffffffffffffffffffffffffffffffffffffff167f8be0079c531659141344cd1fd0a4f28419497f9722a3daafe3b4186f6b6457e060405160405180910390a35050565b600080fd5b600073ffffffffffffffffffffffffffffffffffffffff82169050919050565b6000620001ee82620001c1565b9050919050565b6200020081620001e1565b81146200020c57600080fd5b50565b6000815190506200022081620001f5565b92915050565b6000819050919050565b6200023b8162000226565b81146200024757600080fd5b50565b6000815190506200025b8162000230565b92915050565b6000806000606084860312156200027d576200027c620001bc565b5b60006200028d868287016200020f565b9350506020620002a0868287016200020f565b9250506040620002b3868287016200024a565b9150509250925092565b610ec480620002cd6000396000f3fe60806040526004361061009c5760003560e01c80638da5cb5b116100645780638da5cb5b1461012d578063c71daccb14610158578063d3895c9114610183578063d5ce3389146101ac578063f2fde38b146101d7578063fc0c546a146102005761009c565b80631792b0bc146100a157806347f1609e146100ab578063715018a6146100d45780637ffdf53e146100eb578063862d392e14610116575b600080fd5b6100a961022b565b005b3480156100b757600080fd5b506100d260048036038101906100cd91906108c1565b61042f565b005b3480156100e057600080fd5b506100e961047b565b005b3480156100f757600080fd5b5061010061048f565b60405161010d9190610907565b60405180910390f35b34801561012257600080fd5b5061012b610495565b005b34801561013957600080fd5b506101426105a0565b60405161014f9190610931565b60405180910390f35b34801561016457600080fd5b5061016d6105c9565b60405161017a9190610907565b60405180910390f35b34801561018f57600080fd5b506101aa60048036038101906101a59190610978565b6105db565b005b3480156101b857600080fd5b506101c16105ed565b6040516101ce9190610931565b60405180910390f35b3480156101e357600080fd5b506101fe60048036038101906101f991906108c1565b610613565b005b34801561020c57600080fd5b50610215610696565b6040516102229190610a04565b60405180910390f35b6102336106bc565b6000339050600073ffffffffffffffffffffffffffffffffffffffff168173ffffffffffffffffffffffffffffffffffffffff16036102a7576040517f08c379a000000000000000000000000000000000000000000000000000000000815260040161029e90610a7c565b60405180910390fd5b600034036102ea576040517f08c379a00000000000000000000000000000000000000000000000000000000081526004016102e190610ae8565b60405180910390fd5b346004546102f89190610b37565b60048190555060006005543461030e9190610b6b565b9050600260009054906101000a900473ffffffffffffffffffffffffffffffffffffffff1673ffffffffffffffffffffffffffffffffffffffff166323b872dd600360009054906101000a900473ffffffffffffffffffffffffffffffffffffffff1684846040518463ffffffff1660e01b815260040161039193929190610bad565b6020604051808303816000875af11580156103b0573d6000803e3d6000fd5b505050506040513d601f19601f820116820180604052508101906103d49190610c1c565b508173ffffffffffffffffffffffffffffffffffffffff167f69ca02dd4edd7bf0a4abb9ed3b7af3f14778db5d61921c7dc7cd545266326de28260405161041b9190610907565b60405180910390a2505061042d61070b565b565b610437610714565b80600360006101000a81548173ffffffffffffffffffffffffffffffffffffffff021916908373ffffffffffffffffffffffffffffffffffffffff16021790555050565b610483610714565b61048d6000610792565b565b60055481565b61049d610714565b60003373ffffffffffffffffffffffffffffffffffffffff166004546040516104c590610c7a565b60006040518083038185875af1925050503d8060008114610502576040519150601f19603f3d011682016040523d82523d6000602084013e610507565b606091505b505090508061054b576040517f08c379a000000000000000000000000000000000000000000000000000000000815260040161054290610cdb565b60405180910390fd5b3373ffffffffffffffffffffffffffffffffffffffff167ff279e6a1f5e320cca91135676d9cb6e44ca8a08c0b88342bcdb1144f6511b56860045442604051610595929190610cfb565b60405180910390a250565b60008060009054906101000a900473ffffffffffffffffffffffffffffffffffffffff16905090565b60006105d3610714565b600454905090565b6105e3610714565b8060058190555050565b600360009054906101000a900473ffffffffffffffffffffffffffffffffffffffff1681565b61061b610714565b600073ffffffffffffffffffffffffffffffffffffffff168173ffffffffffffffffffffffffffffffffffffffff160361068a576040517f08c379a000000000000000000000000000000000000000000000000000000000815260040161068190610d96565b60405180910390fd5b61069381610792565b50565b600260009054906101000a900473ffffffffffffffffffffffffffffffffffffffff1681565b600260015403610701576040517f08c379a00000000000000000000000000000000000000000000000000000000081526004016106f890610e02565b60405180910390fd5b6002600181905550565b60018081905550565b61071c610856565b73ffffffffffffffffffffffffffffffffffffffff1661073a6105a0565b73ffffffffffffffffffffffffffffffffffffffff1614610790576040517f08c379a000000000000000000000000000000000000000000000000000000000815260040161078790610e6e565b60405180910390fd5b565b60008060009054906101000a900473ffffffffffffffffffffffffffffffffffffffff169050816000806101000a81548173ffffffffffffffffffffffffffffffffffffffff021916908373ffffffffffffffffffffffffffffffffffffffff1602179055508173ffffffffffffffffffffffffffffffffffffffff168173ffffffffffffffffffffffffffffffffffffffff167f8be0079c531659141344cd1fd0a4f28419497f9722a3daafe3b4186f6b6457e060405160405180910390a35050565b600033905090565b600080fd5b600073ffffffffffffffffffffffffffffffffffffffff82169050919050565b600061088e82610863565b9050919050565b61089e81610883565b81146108a957600080fd5b50565b6000813590506108bb81610895565b92915050565b6000602082840312156108d7576108d661085e565b5b60006108e5848285016108ac565b91505092915050565b6000819050919050565b610901816108ee565b82525050565b600060208201905061091c60008301846108f8565b92915050565b61092b81610883565b82525050565b60006020820190506109466000830184610922565b92915050565b610955816108ee565b811461096057600080fd5b50565b6000813590506109728161094c565b92915050565b60006020828403121561098e5761098d61085e565b5b600061099c84828501610963565b91505092915050565b6000819050919050565b60006109ca6109c56109c084610863565b6109a5565b610863565b9050919050565b60006109dc826109af565b9050919050565b60006109ee826109d1565b9050919050565b6109fe816109e3565b82525050565b6000602082019050610a1960008301846109f5565b92915050565b600082825260208201905092915050565b7f4e6f6e207a65726f206164647265737320726571756972656400000000000000600082015250565b6000610a66601983610a1f565b9150610a7182610a30565b602082019050919050565b60006020820190508181036000830152610a9581610a59565b9050919050565b7f4d6f7265207468616e2030206574682072657175697265640000000000000000600082015250565b6000610ad2601883610a1f565b9150610add82610a9c565b602082019050919050565b60006020820190508181036000830152610b0181610ac5565b9050919050565b7f4e487b7100000000000000000000000000000000000000000000000000000000600052601160045260246000fd5b6000610b42826108ee565b9150610b4d836108ee565b9250828201905080821115610b6557610b64610b08565b5b92915050565b6000610b76826108ee565b9150610b81836108ee565b9250828202610b8f816108ee565b91508282048414831517610ba657610ba5610b08565b5b5092915050565b6000606082019050610bc26000830186610922565b610bcf6020830185610922565b610bdc60408301846108f8565b949350505050565b60008115159050919050565b610bf981610be4565b8114610c0457600080fd5b50565b600081519050610c1681610bf0565b92915050565b600060208284031215610c3257610c3161085e565b5b6000610c4084828501610c07565b91505092915050565b600081905092915050565b50565b6000610c64600083610c49565b9150610c6f82610c54565b600082019050919050565b6000610c8582610c57565b9150819050919050565b7f5769746864726177206e6f74205375636365737366756c210000000000000000600082015250565b6000610cc5601883610a1f565b9150610cd082610c8f565b602082019050919050565b60006020820190508181036000830152610cf481610cb8565b9050919050565b6000604082019050610d1060008301856108f8565b610d1d60208301846108f8565b9392505050565b7f4f776e61626c653a206e6577206f776e657220697320746865207a65726f206160008201527f6464726573730000000000000000000000000000000000000000000000000000602082015250565b6000610d80602683610a1f565b9150610d8b82610d24565b604082019050919050565b60006020820190508181036000830152610daf81610d73565b9050919050565b7f5265656e7472616e637947756172643a207265656e7472616e742063616c6c00600082015250565b6000610dec601f83610a1f565b9150610df782610db6565b602082019050919050565b60006020820190508181036000830152610e1b81610ddf565b9050919050565b7f4f776e61626c653a2063616c6c6572206973206e6f7420746865206f776e6572600082015250565b6000610e58602083610a1f565b9150610e6382610e22565b602082019050919050565b60006020820190508181036000830152610e8781610e4b565b905091905056fea2646970667358221220e65bf25827f181ba49b7f70579033287bc2dc8d0f0e2ff5fdb9b2a3f6ef5a1ef64736f6c63430008110033",
  "linkReferences": {},
  "deployedLinkReferences": {}
}